:020000040800F2
:10000000580800200101000819260008A11C00085A
:10001000B525000871030008253000080000000025
:10002000000000000000000000000000032900089C
:10003000BF0300080000000001290008452A00084D
:100040001B0100081B0100081B0100081B01000820
:100050001B0100081B0100081B0100081B01000810
:100060001B0100081B0100081B0100081B01000800
:100070001B0100081B0100087D030008890300081C
:100080001B0100081B0100081B0100081B010008E0
:100090001B0100081B0100081B0100081B010008D0
:1000A0001B0100081B0100081B0100081B010008C0
:1000B0001B0100081B0100081B0100081B010008B0
:1000C0001B0100081B0100081B0100081B010008A0
:1000D0001B010008BD2F00081B0100081B010008C0
:1000E0001B0100081B0100081B010008DFF80CD0F1
:1000F00000F02CF900480047B130000858080020F3
:100100000648804706480047FEE7FEE7FEE7FEE7B1
:10011000FEE7FEE7FEE7FEE7FEE7FEE7972A0008B8
:10012000ED000008D2B201E000F8012B491EFBD21D
:1001300070470022F6E710B513460A4604461946F2
:10014000FFF7F0FF204610BD30B505462A460B46A6
:1001500012F8010B13F8014B08B1A042F8D01CB102
:10016000002802D06D1CF1E7284630BDF0B480EACB
:100170000102D40F4200B2EB410F02D20246084600
:1001800011464A0042D0C30DDDB2C1F3C752AD1AC9
:10019000202D35DAC1F3160141F4000204B15242B8
:1001A000C5F1200602FA06F12A411044B3EBD05FF4
:1001B00023D0C4B1012DA0EBC35009DCF0BC4FF03B
:1001C000004202EAC352DBB200F5000000F08FB833
:1001D000400000F1807000EBC350A0F1807040EA55
:1001E000D170490009E0490841EAC071A0EBC35051
:1001F00000F50000400800EBC350F0BC00F06EB802
:100200006142012202EB4101001BF6E7F0BC70479E
:1002100081F00041AAE780F00040A7E780EA0102F0
:1002200010B502F00043400022D04A001FD0010E5A
:1002300001EB1261C0F35600C2F3560240F4000015
:1002400042F40002A0FB022000047F39140400D015
:10025000401C50EA124001D44000491EC2B20C06B4
:1002600004EBD010401C4008802A02D003E000209C
:1002700010BD20F00100002900DA0020184310BD55
:10028000420005D0C0F3C7525242914201DC002027
:10029000704700EBC1507047C10F80EAE07008441E
:1002A000CA079623002100F022B800F0004220F097
:1002B0000040C10DC0F3160040F400007F2901DAB0
:1002C00000207047962903DCC1F19601C84001E087
:1002D00096398840002AF4D0404270470029A8BFD0
:1002E0007047401C490008BF20F00100704710B45F
:1002F000B0FA80FC00FA0CF050EA010404BF10BC14
:10030000704749B1CCF1200421FA04F411FA0CF140
:1003100018BF012121430843A3EB0C01CB1D4FEA79
:1003200000614FEA102042BF002010BC704700EB74
:10033000C35010440029A4BF10BC7047401C4900A2
:1003400008BF20F0010010BC70470000064C074DAC
:1003500006E0E06840F0010394E807009847103495
:10036000AC42F6D3FFF7C6FE043C0008243C00086C
:10037000FEE74FF40171FFF7DCBE0000014800F01A
:10038000C5B800000C020020014800F0BFB8000012
:10039000C801002030B590F840500124AC40C56B36
:1003A0006C60046863604368102B036803D0996035
:1003B0000068C26030BD9A600068C16030BD70479F
:1003C0007047000038B50A480068416A0AB2002147
:1003D0004162084C1020002AA26201DA5242A26255
:1003E000009004230021282002F0E8F9A06A38BD1B
:1003F000AC0000200000002038B50A480068416ABF
:100400000AB200214162084C1020002AE26201DA9F
:100410005242E262042300901946282002F0CEF9ED
:10042000E06A38BD3C0100200000002010B590F8C3
:1004300021100022022905D00421816380F82020A8
:10044000012010BD01680B6823F00E030B600168EA
:100450000B6823F001030B6090F84030C46B01215E
:1004600001FA03F3636080F8211080F82020104621
:1004700010BD000010B590F821100024022903D00F
:100480000421816301243DE001680A6822F00E0224
:100490000A6001680A6822F001020A601A4A0168CB
:1004A000914201D1012121E0174A1432914201D138
:1004B00010211BE0144A2832914201D1891515E020
:1004C000114A3C32914201D189140FE00E4A503258
:1004D000914202D14FF4803108E00B4A64329142DC
:1004E00002D14FF4801101E04FF08071064A083AC2
:1004F0005160012180F82110002180F82010416B0B
:1005000001B18847204610BD080002402DE9F05F88
:10051000C16B0C6801680B68D0F840C0042202FA75
:100520000CF2494DDFF824A1494E4A4FDFF828B1BB
:10053000DFF828E122422CD05A072AD50A68920611
:1005400003D40A6822F004020A600168A94201D1BA
:10055000042219E0514501D1402215E0B14202D1F7
:100560004FF4806210E0B94202D14FF480420BE0B8
:10057000594502D14FF4802206E0714502D14FF473
:10058000800201E04FF080622F4908394A60C16A59
:100590003BE04FF0020808FA0CF818EA040F4FF09D
:1005A00000094FF0010235D05FEA837832D50B683D
:1005B0009B0605D40B6823F00A030B6080F821200A
:1005C0000168A94201D1022219E0514501D120223E
:1005D00015E0B14202D14FF4007210E0B94202D1ED
:1005E0004FF400520BE0594502D14FF4003206E0BF
:1005F000714502D14FF4001201E04FF00072124930
:1006000008394A6080F82090816A00291AD0BDE834
:10061000F05F0847082505FA0CF5254212D01B07A4
:1006200010D50B6823F00E030B6090F84010C36BDD
:1006300002FA01F15960826380F8212080F820904D
:10064000016BE2E7BDE8F09F080002401C00024099
:100650003000024044000240580002406C0002405A
:1006600030B528B308C8134914221944B1FBF2F17C
:100670008900C16310498163022141771A6843F6FA
:10068000F0718A43D0E900142143D0E902452C439C
:10069000214304692143446921438469214311436F
:1006A000196000214163012242770177084630BD7D
:1006B000012030BDF8FFFDBF0000024070B50446C8
:1006C00090F82000002501280CD0012084F820009B
:1006D00094F821600020012E06D084F82000022525
:1006E000284670BD022070BD022684F82160A063F8
:1006F0002068066826F0010606602046FFF74AFEDD
:10070000E06A00282068016802D041F00E0106E08E
:1007100021F0040101602068016841F00A010160D4
:100720002068016841F001010160D9E770B5044615
:1007300000F004F90546601C02D004480078044427
:1007400000F0FCF8401BA042FAD370BD4800002026
:100750002DE9F84FDFF8B891002409F1040A0AF1F5
:10076000040B23460F270BF1040EC9E00125A54019
:100770002A40AA427DD1674ED1F804C0ACEB0608EE
:10078000B44532D014DCBCF1030F3AD009DCBCF123
:10079000000F2AD0BCF1010F1CD0BCF1020F31D1E7
:1007A0001DE0BCF1110F17D0BCF1120F2AD119E0D6
:1007B000B8F5881F19D006DCB8F5803F15D0B8F51C
:1007C000801F1FD111E0B8F5001F0ED0B8F5041F2F
:1007D00018D10AE0CB6815E0CB681B1D12E0CB688E
:1007E00008330FE0CB680C330CE08B682BB1012B86
:1007F0004FF0080303D0456104E0042302E00561E3
:1008000000E00023FF2A01D8064601E000F10406BB
:100810004FEA840501D9A5F12005D6F8008007FA32
:1008200005FC28EA0C0803FA05F548EA0508C6F8AD
:1008300000804D68ED0062D5374DAE6946F0010687
:10084000AE61AD6924F0030605F001050095334D56
:1008500006EB050CDCF80850A607360F07FA06F879
:1008600025EA0805DFF8B880404503D14FF00008BD
:1008700017E044E0DFF8AC80404502D14FF00108BA
:100880000FE0DFF8A480404502D14FF0020808E0F5
:10089000DFF89880404502D14FF0030801E04FF0A7
:1008A000040808FA06F848EA0508CCF808804D68FC
:1008B000D9F80060ED034D4601D5164300E096439C
:1008C0002E604D68DAF80060AD03554601D5164339
:1008D00000E096432E604D68DBF80060ED025D4657
:1008E00001D5164300E096432E604D68DEF80060A7
:1008F000AD02754601D5164300E096432E60641C98
:100900000D682A46E5407FF431AFBDE8F88F00005E
:1009100000040140000011100010024000000140DE
:1009200000080140000C014000100140001401408B
:100930000AB1016170470904FBE7000001488068C3
:10094000704700004800002070B5040025D094F8DE
:100950003D00002520B984F83C50204600F050F9B5
:10096000242084F83D002068016821F00101016025
:100970002068016841F4004101602068016821F4A9
:100980000041016000F09AFA4D4A6168914201D835
:100990004C4900E04C49884201D2012070BD4B49CE
:1009A0002368B0FBF1F15E6826F03F060E435E60FF
:1009B0006368934206D94FF4967359434FF47A73A0
:1009C000B1FBF3F12368491C1E6A26F03F06314350
:1009D00019626168914210D84900401EB0FBF1F2E3
:1009E000521CC2F30B02042A01D2042022E0B0FB05
:1009F000F1F0401CC0F30B001CE0A268F2B301EB65
:100A0000C10303EB0116431EB3FBF6F35B1C43F477
:100A100080431B0549D092B301EBC10202EB0111E7
:100A2000401EB0FBF1F0401CC0F30B0040F48040CE
:100A300040F400402168CA694CF6FF739A431043A2
:100A4000C861D4E9071001432068026822F0C0029F
:100A500011430160D4E9030101432068826848F230
:100A6000FF339A4311438160D4E9050108432168AB
:100A7000CA6822F0FF021043C86001E00EE016E0F1
:100A80002068016841F0010101602564202084F89C
:100A90003D00256384F83E50002070BD01EB410607
:100AA000431EB3FBF6F35B1CB3E70120C2E701EB87
:100AB0004101401EB0FBF1F0401CC0F30B00B7E752
:100AC000A086010080841E0000093D0040420F0006
:100AD0002DE9FF4F83B09A46DDE91197934604460E
:100AE000DDF84080FFF72AFF054694F83D002028F6
:100AF0007FD11923012240492046009501F062F977
:100B0000002876D194F83C00012872D0012084F8A6
:100B10003C0020680168C90703D1016841F0010168
:100B200001602068016821F400610160212084F8DF
:100B30003D00402084F83E0000262664C4F824804E
:100B4000A4F82A90608D20852C48E062CDE90075DC
:100B500053465A462046049901F0BAF870B930E07D
:100B60002A463946204601F0ACF958B1206C0428D9
:100B700004D12068016841F400710160012007B0D0
:100B8000BDE8F08F606A216800780861606A401CE7
:100B90006062218D491E89B22185628D521E628557
:100BA00022685369DB435B070BD469B1007810619D
:100BB000606A401C6062208D401E2085608D401E52
:100BC0006085208D0028CBD12A463946204601F089
:100BD000D3F80028CAD154F83D0B016841F40071E4
:100BE0000160202004F81E09E67766770020C6E73A
:100BF000FFE70220C3E70000020010000000FFFF33
:100C000010B586B000210091019102910391006816
:100C1000104988421BD1104CA06940F00800A06127
:100C2000A069694600F0080004904FF4406000900D
:100C300012200190032003900848FFF789FDE06926
:100C400040F48000E061E06900F48000049006B0A8
:100C500010BD00000058004000100240000C014090
:100C60000248816802781144816070474800002082
:100C7000074810B5016841F010010160032000F041
:100C800075F8002000F006F800F024F8002010BDF0
:100C90000020024070B50D4D04464FF47A7128785B
:100CA000B1FBF0F00A490968B1FBF0F000F0ECFA92
:100CB00048B9102C07D200222146501E00F036F809
:100CC00000206C6070BD012070BD00004800002055
:100CD000540000200C4808B5816941F00101816190
:100CE000816901F001010091C16941F08051C16148
:100CF000C06900F0805000900448416821F0E06134
:100D000041F00071416008BD001002400000014048
:100D1000002809DB00F01F020121914040098000FA
:100D200000F1E020C0F8001170470000F0B40E4B55
:100D30001B680C46C3F30223C3F10705042D00D939
:100D40000425191D072901D2002300E0DB1E01261E
:100D500006FA05F1491E214099409E40761E164034
:100D60003143F0BC02F084B90CED00E0064900F01C
:100D7000070208684FF6FF03184040EA0220034AC2
:100D800010430860704700000CED00E00000FA0519
:100D90002DE9F0470F46050061D0434E306800F062
:100DA0000700B84209D2306820F0070038433060AD
:100DB000306800F00700B84251D128683B4C8107E9
:100DC00012D5400703D5606840F4E0606060287881
:100DD000000703D5606840F4605060606068A968EF
:100DE00020F0F000084360602878C00728D06868C9
:100DF000012810D02168022810D0890700292EDA96
:100E0000616821F0030101436160FFF797FD8046AF
:100E100041F288390DE021688903EFE78901EDE7A8
:100E2000FFF78CFDA0EB0801494502D90320BDE87E
:100E3000F0876068696800F00C00B0EB810FEFD1BB
:100E4000306800F00700B8420BD9306820F0070086
:100E500038433060306800F00700B84201D001200C
:100E6000E5E72878400705D56068E96820F4E06088
:100E7000084360602878000706D56068296920F477
:100E8000605040EAC100606000F038F86168084ACC
:100E9000C1F30311515CC840064908600648006868
:100EA000FFF7F8FE0020C2E70020024000100240D9
:100EB000EC3B0008540000204C0000200448054989
:100EC00000684968044AC1F30221515CC840704778
:100ED0005400002000100240FC3B00080448054973
:100EE00000684968044AC1F3C221515CC840704798
:100EF0005400002000100240FC3B000812A185B005
:100F00000FC98DE80F0014A0144A006804905168BE
:100F1000134801F00C03042B10D0082B0ED1C1F3A1
:100F20008343C9031DF803000AD5516804AAC1F31D
:100F30004041515C0A4A5043B0FBF1F005B07047A4
:100F400008494843FAE700000203040506070809B8
:100F50000A0B0C0D0E0F10100102000000100240D1
:100F600000127A0000093D002DE9F84F040070D00E
:100F70002078C04DC00749D06868C0F381000128BF
:100F800007D06868C0F38100022809D16868C003EF
:100F900006D52868800339D560680028E7D035E099
:100FA0006068B0F5803F0BD010B1B0F5A02F11D024
:100FB000286820F480302860286820F4802002E02F
:100FC000286840F480302860606890B1FFF7B6FC74
:100FD00006460AE0286840F480202860F0E700BF59
:100FE000FFF7ACFC801B642873D828688003F7D512
:100FF0000CE0FFF7A3FC064605E000BFFFF79EFCF0
:10100000801B6428F0D828688003F7D420789A4E93
:1010100080074FF001094FF0000839D5686810F0DB
:101020000C0F07D06868C0F38100022809D16868F6
:10103000C00306D42868800714D52069012808D188
:1010400010E02069B0B1C6F80090FFF777FC0746C2
:1010500005E00AE1FFF772FCC01B0228C4D828682B
:101060008007F7D52868616920F0F80040EAC100E0
:1010700028600DE0C6F80080FFF760FC074604E03A
:10108000FFF75CFCC01B022823D828688007F7D430
:10109000207800072CD57948A169D9B1C0F8009013
:1010A000FFF74CFC074604E0FFF748FCC01B022892
:1010B0000FD8686A8007F7D571484FF4FA51006875
:1010C000B0FBF1F0009000BF0098411E0091FAD2F1
:1010D0000EE080E0C0F80080FFF730FC074604E037
:1010E000FFF72CFCC01B022875D8686A8007F7D46C
:1010F0002078400760D5E8690027C00008D4E86977
:1011000040F08050E861E869012700F080500090CD
:101110005C480168C90513D40168834641F48071B5
:101120000160FFF70BFC824606E000BFFFF706FCFC
:10113000A0EB0A0064284ED8DBF80000C005F5D506
:10114000E06801280AD008B1052813D0286A20F0E9
:1011500001002862286A20F0040002E0286A40F0BA
:1011600001002862E06841F2883B98B1FFF7E6FB96
:1011700082460BE0286A40F004002862EEE700BFD8
:10118000FFF7DCFBA0EB0A0159455AD8286A800713
:10119000F6D50CE0FFF7D2FB824605E0FFF7CEFB69
:1011A000A0EB0A0159454CD8286A8007F6D41FB134
:1011B000E86920F08050E861E06988B36968C1F3AC
:1011C0008101022944D00228C6F8608004D0FFF7CC
:1011D000B5FB044638E034E0FFF7B0FB074604E017
:1011E000FFF7ACFBC01B02282BD828688001F7D47E
:1011F000206AB0F5803F05D16868A16820F400300E
:1012000008436860D4E908010843696821F474114F
:1012100008436860C6F86090FFF790FB044606E05C
:1012200025E000BFFFF78AFB001B022809D82868C9
:101230008001F7D51BE000BFFFF780FB001B0228F1
:1012400002D90320BDE8F88F28688001F4D40EE0AD
:101250000128F7D06868226A00F48031914204D1F5
:10126000616A00F47010884201D00120EAE7002092
:10127000E8E70000001002400000424280044242C1
:10128000540000200070004010B5401EB0F1807F77
:1012900001D3012010BD4FF0E02460610F216017E1
:1012A00001F0E6FE0020A06107202061002010BDB3
:1012B00070B590F83C20012A26D0012480F83C40EB
:1012C000022280F83D2003685A689D6822F070066B
:1012D0000A6832435A600D4B02689A4208D0B2F154
:1012E000804F05D00A4B9A4202D00A4B9A4204D151
:1012F000496825F080031943916080F83D40002142
:1013000080F83C10084670BD022070BD002C0140E2
:10131000000400400008004010B5040003D094F819
:101320003D0010B107E0012010BD002084F83C0012
:10133000204600F01FF8022084F83D00211D20689F
:1013400001F0AAFB012084F8460084F83E0084F8EE
:101350003F0084F8400084F8410084F8420084F89B
:10136000430084F8440084F8450084F83D000020E0
:1013700010BD000008B500680649884208D106483B
:10138000C16941F00201C161C06900F00200009032
:1013900008BD0000000400400010024070B5044683
:1013A00090F83C00012817D0012584F83C50022019
:1013B00084F83D002068826822F0770222F47F42A0
:1013C00082600868502830D00DDC20284DD005DC24
:1013D00098B310283BD148E0022070BD302844D09B
:1013E000402834D139E0602828D0702806D0B0F5E4
:1013F000805F2CD0B0F5005F29D10AE0CB68D1E93D
:101400000121206801F08BFB2068816841F07701A1
:1014100009E0CB68D1E90121206801F080FB206858
:10142000816841F48041816011E0CA6849682068A0
:1014300001F02AFC5021206807E016E0CA684968DC
:10144000206801F032FC6021206801F072FB84F812
:101450003D50002084F83C0070BDCA68496820688F
:1014600001F012FC40212068EFE722680146104697
:10147000EBE72DE9F0410D46040003D094F83D0060
:1014800018B108E00120BDE8F081002084F83C009C
:10149000204600F041F8022084F83D002068816871
:1014A00044F2070291438160211D206801F0F4FAA3
:1014B000226890689169166A2B68AF69034340F20D
:1014C0000330814341EA0721A868EF6908434FF6DA
:1014D000FC418843E96840EA0720014328692F6AF4
:1014E000000140EA0730084369686D6926F022066A
:1014F00046EA0515294393602268906154F8460B2B
:101500000162012004F81F09E0752076E07620775B
:10151000A0750020B7E7000000B585B0002100915C
:1015200001910291039101681A48B1F1804F1BD0DB
:10153000194A914216D1C16941F00401C161C169E2
:1015400001F004010491816941F008018161806921
:10155000694600F008000490C02000900F4800BFCA
:10156000FFF7F6F805B000BDC16941F00101C161A6
:10157000C16901F001010491816941F004018161B7
:101580008069694600F0040004900320009004483C
:10159000E6E700000010024000080040000C014097
:1015A0000008014070B590F83E60044690F83F5046
:1015B00090F8423090F84320022021B104290ED047
:1015C000012E1BD114E0012E18D1012B16D184F865
:1015D0003E0084F8420001220021206820E0012D15
:1015E0000CD1012A0AD184F83F0084F8430014E0AA
:1015F000012D03D1012B01D1012A01D0012070BDA1
:1016000084F83E0084F83F0084F8420084F84300E8
:1016100001220021206801F075FA012204212068CE
:1016200001F070FA2068016841F0010101600020BA
:1016300070BD000010B586B00021009101910291AB
:10164000039100681249884220D11248816941F013
:1016500004018161816901F004010491816941F013
:10166000080181618069022400F008000490402094
:10167000CDE90004694608480394FFF769F800942F
:101680000194694605480394FFF762F806B010BD5F
:10169000000400400010024000080140000C01401E
:1016A00070B5044690F83C000D4601280AD0012090
:1016B00084F83C0042B1042A18D0082A2AD00C2A07
:1016C0004DD139E0022070BD206801F03BFA20685E
:1016D000816941F0080181612068816921F004017C
:1016E0008161206881692A69114311E0206801F055
:1016F00051FA2068816941F4006181612068816943
:1017000021F480618161206881692A6941EA0221AE
:10171000816124E0206801F069FA2068C16941F024
:101720000801C1612068C16921F00401C16120681C
:10173000C1692A69114311E0206801F083FA206829
:10174000C16941F40061C1612068C16921F480610F
:10175000C1612068C1692A6941EA0221C161002092
:1017600084F83C0070BD10B5040003D094F83D002F
:1017700010B107E0012010BD002084F83C00204695
:1017800000F01EF8022084F83D00211D206801F0C1
:1017900083F9012084F8460084F83E0084F83F0075
:1017A00084F8400084F8410084F8420084F8430043
:1017B00084F8440084F8450084F83D00002010BD02
:1017C0007047000010B50446022249B104290ED02A
:1017D000082913D094F84100012816D0012010BD2B
:1017E00094F83E000128F9D184F83E200FE094F8E7
:1017F0003F000128F2D184F83F2008E094F840002F
:101800000128EBD184F8402001E084F84120012236
:10181000206801F077F90F492068884203D1426CB3
:1018200042F4004242642068884208D0B0F1804F00
:1018300005D00949884202D00849884204D181680C
:1018400001F00701062903D0016841F001010160A0
:10185000002010BD002C01400004004000080040A2
:10186000704708B590F83C10012907D0012180F895
:101870003C1090F83D10212902D006E0022008BD5E
:1018800001684A6942F080024A6190F83E100022E5
:10189000222911D101680B684B680093CB6843F48F
:1018A0008073CB6001684B6943F001034B610168B1
:1018B0004B6943F040034B6180F83C20002008BD99
:1018C00010B504460068416994F83D20C1F3C01189
:1018D000212A0BD151B1416921F080014161606B36
:1018E00008B1FEF7A3FD204601F070FA20684169B7
:1018F00094F83E20C1F38011222A0BD151B14169E5
:1019000021F040014161A06B08B1FEF78FFD204638
:1019100001F044FA002010BD70470000F8B50268DD
:1019200004461068D168536910F00F0F4FF000059E
:1019300054D003F0010601F4907737435FD0C2071B
:1019400005D0CA0503D5226C42F001022264420789
:1019500005D5DA0703D0226C42F002022264820726
:1019600005D5DA0703D0226C42F004022264020794
:1019700007D501F02002324303D0226C42F0080266
:101980002264226C002A35D0800604D5880602D550
:10199000204601F024FA20684069216CC0F38010D1
:1019A00001F008010143204625D001F0F7F9206835
:1019B000416949061BD5416921F040014161A06B95
:1019C000A8B158494163A06BFEF754FD002811D01F
:1019D000A06B416B01B0BDE8F040084783060ED50F
:1019E0008B060CD52046BDE8F84001F0F8B920463A
:1019F000FFF792FFF8BDFFF78FFF2564F8BD266B58
:101A00002023012E52D1C60650D5CE064ED51068E1
:101A100050680090506940062AD5A16B086840685C
:101A20000004000CEAD0A68D8642E7D9E0858869DB
:101A3000202818D0D06820F48070D06020684169D8
:101A400021F0010141612068416921F040014161BB
:101A500084F83E3025632068C16821F01001C16020
:101A6000A06BFEF7E3FCA08DE18D401A81B219E076
:101A7000A08DE18D401A81B2E08D0028BED00029F2
:101A8000BCD0D06820F49070D0602068426922F009
:101A90000102426184F83E3025632068C26822F06A
:101AA0001002C2602046FFF7DBFEF8BD05062BD50D
:101AB0000D0629D594F83D002128F6D1A068B0F58F
:101AC000805F01D12069B0B1206A411C2162216888
:101AD00000784860E08C401E0004000CE084E4D1F3
:101AE0002068C16821F08001C1602068C16841F0B0
:101AF0004001C160F8BD206A0088C0F30800506052
:101B0000206A801C2062E5E74006F3D54806F1D53F
:101B1000D168204621F04001D16084F83D3000F0CA
:101B2000BEF8F8BDCF2C000870B5040004D094F8BE
:101B30003D00002510B106E0012070BD84F83C5046
:101B4000204600F023F8242084F83D002068C16876
:101B500021F40051C160204601F09CF92068016920
:101B600021F4904101612068416921F02A0141611D
:101B70002068C16841F40051C1602564202084F8C8
:101B80003D0084F83E00002070BD00002DE9F041CA
:101B900086B00024064600940194029403940068E1
:101BA0002E49884256D12E48816941F48041816195
:101BB000816901F480410491816941F004018161EE
:101BC0008069284D00F0040004904FF400700090EC
:101BD000022001900320039069462846FEF7B8FDD5
:101BE0002815CDE90004694628460294FEF7B0FDA9
:101BF0001E4D1D488027C5E90004C5E902474FF086
:101C000020082C61C5E905482846EC61FEF728FD4F
:101C100008B1FEF7D5FBB5636E62144D124844352A
:101C2000143801C5102091C5104845F810494430BA
:101C3000C5E90548EC61FEF713FD08B1FEF7C0FBEE
:101C400075630022114625206E62FFF76FF825208C
:101C5000FFF75EF806B0BDE8F081000000380140F3
:101C6000001002400008014058000240C801002056
:101C700090F83E30202B0ED159B152B190F83C3043
:101C8000012B08D0012380F83C300023036301F0CE
:101C90005DB9012070470220704770477047704758
:101CA000FEE701684A69D24352050FD46FF480629F
:101CB0004A61002140F8301F20224273817302697B
:101CC00042F0040202610173012070470020704756
:101CD0002DE9F843044600680D46DDE908970168E0
:101CE0009846164641F4807101604B4600224FF041
:101CF00001112046009700F065F848B1206800689F
:101D0000C00502D54FF4007020640320BDE8F883BD
:101D1000216805F0FE0008613B464A461549204609
:101D200000F084F888B920684169806900903A46DB
:101D30004946204600F0C5F848B1206C042804D17B
:101D40002068016841F4007101600120DEE7F5B20E
:101D5000B8F1010F09D02168300A08613A464946B6
:101D6000204600F0AEF80028E7D120680561002089
:101D7000CCE700000200010070B516460D4604468F
:101D80000DE02046FFF78DFF08B1012070BD681CF3
:101D900005D0FEF7D3FD801BA84207D835B12068D7
:101DA0004069C0434007ECD4002070BD002044F8D7
:101DB000300F20216173A073216941F0200121615E
:101DC0002073E2E72DE9F0471E4690460D46044693
:101DD000C1F30747DDF8209008E0701C06D0FEF73D
:101DE000ADFDA0EB0900B0420FD876B12068012FFD
:101DF00018D0806925EA00000004000C14D00021EE
:101E00004145EAD00020BDE8F087002044F8300FBB
:101E100020216173A073216941F0200121612073A9
:101E20000120F0E74069E5E70121E9E72DE9F04706
:101E30009A4691460E46044600254FF02008C1F30D
:101E4000074725E020684069C043400514D4206856
:101E5000016841F40071016021686FF4806048619D
:101E6000256384F83D8084F83E50206C40F00400E7
:101E7000206484F83C501FE0B9F1FF3F08D0FEF722
:101E80005DFDA0EB0A0149450CD8B9F1000F09D05E
:101E90002068012F13D0806926EA00000004000C9E
:101EA0000BD0CFE744F8305F84F80D80A57320692C
:101EB00040F02000206125730120BDE8F0874069D3
:101EC000EAE770B516460D4604460DE02046FFF7DA
:101ED000E8FE08B1012070BD681C05D0FEF72EFD9C
:101EE000801BA84207D835B120684069C04300066E
:101EF000ECD4002070BD002044F8300F2021617325
:101F0000A073216941F0200121612073E2E7000004
:101F100070B5114C0F482168006848630F4D0022CE
:101F200010212846FEF704FD012220212846FEF755
:101F3000FFFC0B48216800680864002280212846C5
:101F4000FEF7F6FCBDE87040012211460548FEF799
:101F5000EFBC000008000020F40000200008014051
:101F600018000020000C014070B5114C0F4821688A
:101F7000006848630F4D002220212846FEF7D8FC58
:101F8000012210212846FEF7D3FC0B482168006887
:101F90000864012280212846FEF7CAFCBDE8704093
:101FA000002201210548FEF7C3BC00000800002004
:101FB000F40000200008014018000020000C01403F
:101FC00070B5114C0F482168006848630F4D01221D
:101FD00020212846FEF7ACFC002210212846FEF7FF
:101FE000A7FC0B4821680068086400220121094809
:101FF000FEF79EFC2846BDE8704000228021FEF7D7
:1020000097BC000008000020F400002000080140F8
:1020100018000020000C014070B5114C0F482168D9
:10202000006848630F4D002220212846FEF780FCFF
:10203000012210212846FEF77BFC0B48216800682E
:102040000864002201210948FEF772FC2846BDE819
:10205000704000228021FEF76BBC000008000020C9
:10206000F40000200008014018000020000C01408E
:1020700070B5114C0F482168006848630F4D00226D
:1020800020212846FEF754FC012210212846FEF7A5
:102090004FFC0B482168006808640122114609487A
:1020A000FEF746FC2846BDE8704000228021FEF77E
:1020B0003FBC000008000020F400002000080140A0
:1020C00018000020000C014070B5114C0F48216829
:1020D000006848630F4D012220212846FEF728FCA6
:1020E000002210212846FEF723FC0B4821680068D7
:1020F0000864012280212846FEF71AFCBDE87040E2
:10210000002201210548FEF713BC00000800002052
:10211000F40000200008014018000020000C0140DD
:1021200070B5114C0F482168006848630F4D0022BC
:1021300020212846FEF7FCFB002210212846FEF74E
:10214000F7FB0B4821680068086401221146094822
:10215000FEF7EEFB2846BDE8704000228021FEF726
:10216000E7BB000008000020F40000200008014048
:1021700018000020000C014070B5114C0F48216878
:10218000006848630F4D002220212846FEF7D0FB4F
:10219000002210212846FEF7CBFB0B48216800687F
:1021A0000864002201210948FEF7C2FB2846BDE869
:1021B000704001228021FEF7BBBB00000800002018
:1021C000F40000200008014018000020000C01402D
:1021D00010B50B4C002210212046FEF7A9FB00226F
:1021E00020212046FEF7A4FB002280212046FEF796
:1021F0009FFB0022BDE8104001210248FEF798BB7A
:1022000000080140000C014070B5114C0F482168D6
:10221000006848630F4D002220212846FEF788FB06
:10222000012210212846FEF783FB0B482168006835
:102230000864012211460948FEF77AFB2846BDE8EA
:10224000704000228021FEF773BB000008000020D0
:10225000F40000200008014018000020000C01409C
:1022600070B5114C0F482168006848630F4D00227B
:1022700010212846FEF75CFB012220212846FEF7AC
:1022800057FB0B48216800680864002201210948B7
:10229000FEF74EFB2846BDE8704001228021FEF784
:1022A00047BB000008000020F400002000080140A7
:1022B00018000020000C01400D4808B5416941F0AC
:1022C000010141614069002200F0010000901146C7
:1022D0000E20FEF72BFD0E20FEF71AFD0022114600
:1022E0000F20FEF723FDBDE808400F20FEF710BDCC
:1022F000001002402DE9F04385B000242B480094E3
:10230000019402940394816941F010018161816913
:1023100001F010010491816941F02001816181691E
:1023200001F020010491816941F00401816181691A
:1023300001F004010491816941F008018161806923
:10234000012200F008001A4F550304902946384630
:10235000FEF7EEFADFF85C800022B0214046FEF77F
:10236000E7FADFF85490002201214846FEF7E0FA30
:102370000095022601250396CDE9015469463846A9
:10238000FEF7E6F9B020CDE90005CDE90246694641
:102390004046FEF7DDF903960095CDE90154694604
:1023A0004846FEF7D5F905B0BDE8F08300100240BD
:1023B0000010014000080140000C01400D4810B51C
:1023C0000B4901600C49416000214FF4804281605B
:1023D000C0E9031241618161C1610162FEF7B4FA93
:1023E000002803D0BDE81040FDF7EABF10BD000093
:1023F0000058004058000020801A060010B58CB02C
:1024000024216846FDF795FE0024154809944FF0F5
:1024100080410A94C0E900144FF6FF71C0E90241FF
:102420008021046181610120CDE90004CDE902042D
:102430000494CDE905400794694609480894FFF7DC
:1024400018F808B1FDF7BCFF099409A904480A94DB
:10245000FEF72EFF002801D0FDF7B2FF0CB010BD33
:10246000AC00002010B58EB00024079408940994A5
:102470000A940B941C2168460C94FDF75AFE2348DD
:10248000214901604721C0E9011440F2F311C0E97C
:10249000031480218161FEF73FFF08B1FDF790FF33
:1024A0004FF48050079007A91848FEF777FF08B14E
:1024B000FDF786FF1548FFF756F908B1FDF780FFD5
:1024C0000B940BA911480C94FEF7F2FE08B1FDF72E
:1024D00077FF6020CDE900040294002269460B4892
:1024E0000494FFF7DDF808B1FDF76AFF0C22694696
:1024F0000648FFF7D5F808B1FDF762FF0348FFF77C
:1025000099F80EB010BD000000040040F400002057
:1025100010B58CB024216846FDF70BFE0024164848
:10252000099414490A94C0E900144FF6FF71C0E9F8
:1025300002418021046181610120CDE90004CDE9DF
:1025400002040494CDE90540079469460A480894BA
:10255000FEF78FFF08B1FDF733FF099409A906487C
:102560000A94FEF7A5FE002801D0FDF729FF0CB064
:1025700010BD0000000800403C0100200C4810B5D0
:102580000A4901604FF4E1314160002181600C2271
:10259000C160C0E904128161C161FFF7C5FA00287A
:1025A00003D0BDE81040FDF70BBF10BD003801405F
:1025B00084010020FEE7000010B5FDF703FF094C81
:1025C000A06A28B1216800F09DF9A06A002807D10F
:1025D0000A20A0602168A06ABDE8104000F092B90E
:1025E00010BD00000000002010B5FDF705FF094CEC
:1025F000E06A28B1616800F0D5F9E06A002807D1E7
:102600000A20A0616168E06ABDE8104000F0CAB924
:1026100010BD00000000002070470020AFF30080D4
:1026200070B506465FF0000404F1B000C0B200F0DF
:10263000FBFC002000F0F8FC102000F0F5FC002569
:10264000304600F003FD6D1CEDB2802DF8D3641C04
:10265000E4B2082CE8D370BD10B56420FEF766F82C
:10266000AE2000F0E1FC202000F0DEFC102000F0A5
:10267000DBFCB02000F0D8FCC82000F0D5FC002026
:1026800000F0D2FC102000F0CFFC402000F0CCFC89
:10269000812000F0C9FCFF2000F0C6FCA12000F062
:1026A000C3FCA62000F0C0FCA82000F0BDFC3F2029
:1026B00000F0BAFCA42000F0B7FCD32000F0B4FC7A
:1026C000002000F0B1FCD52000F0AEFCF02000F0BE
:1026D000ABFCD92000F0A8FC222000F0A5FCDA20F9
:1026E00000F0A2FC122000F09FFCDB2000F09CFC1C
:1026F000202000F099FC8D2000F096FC142000F0C2
:1027000093FCBDE81040AF2000F08EBC10B504462D
:10271000B031C8B200F088FC102040EA141000F07C
:1027200083FC04F00F00BDE8104040F0010000F011
:102730007BBC00002DE9F041203A00240D46804684
:10274000D6B27F2803D900208D1C8046EDB2102B15
:1027500029460FD0FFF7DAFF164906EB460001EBDA
:102760004005285D00F072FC641CE4B2062CF8D32E
:10277000BDE8F081FFF7CAFF0F4F00BF04EB061062
:10278000385C00F063FC641CE4B2082CF6D36D1CCA
:10279000E9B24046FFF7BAFF5FF0000404EB061011
:1027A0003844007A00F052FC641CE4B2082CF5D3E3
:1027B000DEE70000D4330008FC3500082DE9F05FA7
:1027C0000026DDF828901D4692468B46804634460A
:1027D0004FEA590723E0281B401EC1B20A2000F02F
:1027E000F1FDBAFBF0F00A21B0FBF1F201FB12009F
:1027F00026B9691E8C4201DA38B101263030C2B2E6
:1028000007FB0480C0B24B4604E007FB0480C0B263
:102810004B4620225946FFF78DFF641CE4B2AC42C0
:10282000D9D3BDE8F09F00002DE9F047002591467F
:102830008A460446012B22D0DFF8BC80022B24D12B
:1028400055E02038C7B27E2C04D90AF101000024DB
:1028500000F0FF0A51462046FFF758FF07EB4700FC
:10286000002608EB4007B85D00F0F0FB761CF6B2DE
:10287000062EF8D3A41D6D1CE4B2EDB201E0DFF822
:102880007C8019F805000028DBD1BDE8F0872038EE
:10289000C7B2782C04D90AF10100002400F0FF0A25
:1028A00051462046FFF732FF5FF0000606EB0711A6
:1028B00018F8010000F0CAFB761CF6B2082EF5D31A
:1028C0000AF10100C1B22046FFF720FF5FF00006C9
:1028D00006EB071101EB0800007A00F0B7FB761C4D
:1028E000F6B2082EF4D308346D1CE4B2EDB219F838
:1028F00005000028CBD1C8E7FC350008D433000818
:10290000704770472DE9F843254C0D1A606BFDF7B1
:10291000C3FC0746206B8046FDF7BEFC0121FDF796
:10292000AFFC06462846FDF7B7FC81463146FDF769
:102930006FFC3946FDF71AFC6169FDF76FFC07462D
:1029400048462169FDF76AFC0646A5EB0800FDF73D
:10295000A3FCE168FDF762FC3146FDF707FC394650
:10296000FDF704FCFDF7A1FCA063A1680844A0608A
:10297000C4E90C5840F6B831884202DD4FF4C87003
:1029800002E0002801DA0020A0601020009004235B
:1029900002212820A268FFF711FFA068BDE8F88394
:1029A000000000202DE9F843254C0D1A206CFDF79E
:1029B00073FC0746E06B8046FDF76EFC0121FDF7D6
:1029C0005FFC06462846FDF767FC81463146FDF769
:1029D0001FFC3946FDF7CAFB616AFDF71FFC07467D
:1029E0004846216AFDF71AFC0646A5EB0800FDF7EC
:1029F00053FCE169FDF712FC3146FDF7B7FB3946A0
:102A0000FDF7B4FBFDF751FC6064A1690844A061C7
:102A1000C4E90F5840F6B831884202DD4FF4C8705F
:102A200002E0002801DA0020A061102000900423B9
:102A300006212820A269FFF7C1FEA069BDE8F8833E
:102A400000000020FEF70CB930B58FB02821684691
:102A5000FDF76FFB14210AA8FDF76BFB01210804A9
:102A6000CDE900100024029402250491CDE907501D
:102A70004FF4E01009906846FEF776FA0F20CDE992
:102A80000A056802CDE90C4002210AA80E94FEF75F
:102A90007FF90FB030BD7047F0B50268164B174C88
:102AA000174D4FF08047984205D0B84203D0A0425E
:102AB00001D0A84203D122F070064A6832439842FE
:102AC00005D0B84203D0A04201D0A84203D122F4DD
:102AD0004074CA6822434C6922F08002224302609B
:102AE0008A68C2620A688262984201D109690163F8
:102AF00001214161F0BD0000002C014000040040B4
:102B00000008004010B501F01F030121046A99403C
:102B10008C430462016A9A401143016210BD10B5F2
:102B2000846842EA032224F47F440A4322438260F9
:102B300010BD826822F070020A4342F007018160F2
:102B40007047000030B5026A22F001020262026A98
:102B50004368846924F073050C682C4322F0020555
:102B60008A682A430A4DA8420BD122F00805CA6898
:102B700023F440732A434D6922F004021D438B69FC
:102B80002B434360846149684163026230BD0000A9
:102B9000002C014030B5026A22F010020262026A83
:102BA000436884690D6824F4E64444EA05248D688A
:102BB00022F0200242EA05120B4DA8420ED1CD6848
:102BC00022F0800242EA05124D6923F4406343EA91
:102BD00085038D6922F0400243EA850343608461E6
:102BE00049688163026230BD002C014030B5026A41
:102BF00022F480720262036A4268C46923F400739B
:102C000024F073050C682C438D6843EA05230C4DB2
:102C1000A8420ED1CD6823F4006343EA05234D6931
:102C200022F4405242EA05128D6923F4806342EA9D
:102C300005124260C4614968C163036230BD00008F
:102C4000002C014030B5026A22F480520262046A0C
:102C50004268C3690D6823F4E64343EA05238D689F
:102C600024F4005444EA0534064DA84204D14D69C9
:102C700022F4804242EA85124260C36149680164DD
:102C8000046230BD002C014010B5036A046A24F0D0
:102C900001040462846924F0F00444EA021423F07D
:102CA0000A020A438461026210BD10B5036A23F070
:102CB000100303628369046A23F4704343EA023217
:102CC00024F0A00343EA01118261016210BD10B536
:102CD000406A0021C185C184FEF71EFE10BD70B59B
:102CE000446A2068406994F83D10C0F3C010002584
:102CF000212904D118B1E584204600F067F8206846
:102D0000406994F83E10C0F38010222904D118B114
:102D1000E585204600F042F8206C40F01000206469
:102D20002046FEF7F9FD70BD10B50146406A0968FE
:102D3000096889061BD40021C1850168CA6822F48C
:102D40008072CA6001684A6922F001024A61016822
:102D50004A6922F040024A61202180F83E10016B4E
:102D6000012904D10168CA6822F01002CA60016B0F
:102D7000012902D0FEF791FF10BD818DFEF770FD95
:102D800010BD10B5406A016B012902D0FEF786FF25
:102D900010BD818D4908FEF763FD10BD0168CA684A
:102DA00022F49072CA6001684A6922F001024A6105
:102DB000016B012904D10168CA6822F01002CA60BF
:102DC000202180F83E100021016370470168CA6825
:102DD00022F0C002CA60202180F83D10704708B57B
:102DE00090F83E10222901D0022008BD82684FF4DD
:102DF00080539A4201D1016921B1816A9A421BD064
:102E00004AB10AE00268816A5268C2F308020A8085
:102E1000816A891C08E0026972B10268526802F096
:102E20007F020A70816A491C8162C18D491E0904B2
:102E3000090CC18503D019E002685268F1E7016806
:102E4000CA6822F02002CA600168CA6822F480724F
:102E5000CA6001684A6922F001024A61202180F8B3
:102E60003E10016B012903D0FEF717FF002008BDBB
:102E7000002101630168CA6822F01002CA6001687B
:102E80000A68D20602D50A6849680091818DFEF76A
:102E9000E7FCEBE770B5044600680169E26821F4DD
:102EA0004051114301612169A068084361690843E9
:102EB0002168CA6841F20C639A430243CA602068E1
:102EC0004169A26921F44071114341611E492068A2
:102ED000884202D1FEF702F801E0FDF7EFFF00EBB8
:102EE000C00101EB0012606864218000B2FBF0F3C6
:102EF000B3FBF1F36FF018067343B2FBF0F5B2FBCE
:102F0000F0F605EB8305322303EB0515B5FBF1F570
:102F1000B6FBF1F605F0F00505EB0615B2FBF0F691
:102F2000B2FBF0F0B0FBF1F06FF01802504306EB8B
:102F3000800003EB0010B0FBF1F0216800F00F00FF
:102F40002844886070BD00000038014038B58162B7
:102F500082850025134604460564222084F83E003D
:102F6000A26B13489062A26B1248D062A26B124807
:102F70001063A06B0A4645632168A06B091DFDF72D
:102F80009DFB206801684168009184F83C50C1684D
:102F900041F48071C1602068416941F001014161E3
:102FA0002068416941F040014161002038BD0000C6
:102FB000292D0008832D0008DF2C000838B516489D
:102FC000FEF7ACFC14486FF0100102681160006855
:102FD00000240168406800900F48FEF771FC0F481C
:102FE000006840684FF00102C0F5007001040C4811
:102FF000090CA0F8001280F802220BD180F80242DE
:10300000014652020448FEF733FEBDE8384002484C
:10301000FEF727BC38BD000084010020C801002055
:1030200050020020FEE7000001B584B001216422B7
:1030300004A88DE807000B46002278210248FDF71E
:1030400047FD05B000BD00005800002001B584B068
:103050000121642204A88DE807000B464022782154
:103060000248FDF735FD05B000BD00005800002006
:103070000907090E002804DB00F1E02080F80014A5
:10308000704700F00F0000F1E02080F8141D704739
:1030900002E008C8121F08C1002AFAD17047704721
:1030A000002001E001C1121F002AFBD1704700007F
:1030B000FDF7DEFDFFF7C8FCFFF71CF9FFF7FCF892
:1030C000FFF75CFAFFF77AF9FFF798F9FFF7CAF90B
:1030D000FFF71EFAFFF7C0FAFFF79FFA00219848A2
:1030E000FEF770FB0C219648FEF76CFB3C219548DF
:1030F000FEF758FA3C219448FEF754FA9348FDF73E
:1031000038F993480068C16841F01001C1604FF47C
:10311000007B5A468D498E48FEF7AAFD02238DA2F8
:1031200019462D20FFF780FB40F2DC50FDF7FEFA38
:10313000FFF773FA854FDFF82492DFF824A2894D58
:103140004FF096084FF4005697F80202012873D109
:10315000002231462846FDF7EBFB83A17B48FCF7B4
:10316000F3FF38B1C9F80080CAF80080FEF7FCFE12
:1031700001247BE07DA17548FCF7E6FF38B1C9F872
:103180000080CAF80080FEF7C3FE02246EE079A139
:103190006E48FCF7D9FF38B1C9F80080CAF8008042
:1031A000FEF766FF032461E074A16848FCF7CCFFDA
:1031B00038B1C9F80080CAF80080FEF785FF042402
:1031C00054E070A16148FCF7BFFF38B1C9F8008036
:1031D000CAF80080FFF718F8052447E06BA15B48A8
:1031E000FCF7B2FF38B1C9F80080CAF80080FFF7D9
:1031F00037F806243AE067A15448FCF7A5FF08B168
:10320000072433E065A15148FCF79EFF38B1C9F8A7
:103210000080CAF80080FEF7FFFE082426E061A1C6
:103220004A48FCF791FF40B1C9F80080CAF8008015
:10323000FEF7C6FE092419E02BE05DA14348FCF728
:1032400083FF38B1C9F80080CAF80080FEF794FF08
:103250000A240BE058A13D48FCF776FF30B1C9F8CD
:103260000080CAF80080FEF75BFF0B243748FDF7AB
:1032700080F80A20FDF75AFA012231462846FDF768
:1032800057FB5A4631493248FEF7F2FC3048FEF708
:10329000E8FA0C2C35D2DFE804F034060D141B22BA
:1032A0002930373E454CFFF787F9FFF79DF9FEF7C8
:1032B0005BFE49E7FFF780F9FFF796F9FEF728FE76
:1032C00042E7FFF779F9FFF78FF9FEF7D1FE3BE709
:1032D000FFF772F9FFF788F9FEF7F6FE34E7FFF71C
:1032E0006BF9FFF781F9FEF78FFF2DE7FFF764F920
:1032F000FFF77AF9FEF7B4FF26E7FFF75DF9FFF76E
:1033000073F9FEF765FF1FE7FFF756F9FFF76CF952
:10331000FEF782FE18E7FFF74FF9FFF765F9FEF7B2
:103320004FFE11E7FFF748F9FFF75EF9FEF724FFBC
:103330000AE7FFF741F9FFF757F9FEF7F1FE03E758
:10334000F4000020AC0000203C01002050020020CE
:10335000840100204320592048000000080000207C
:103360001800002000100140676F00006261636B6D
:10337000000000006D6C6566740000006D72696786
:1033800068740000746C656674000000747269678C
:103390006874000073746F70000000006C656674E0
:1033A000757000006C656674646F776E00000000D5
:1033B00072696768747570007269676874646F77A2
:1033C0006E0000000246012000E05043491EC9B2D1
:1033D000FBD270470000000000000000002F00003A
:1033E00000000700070000147F147F1400242A7FC8
:1033F0002A12006264081323003649552250000047
:103400000503000000001C224100000041221C00B6
:103410000014083E08140008083E0808000000A038
:103420006000000808080808000060600000002034
:1034300010080402003E5149453E0000427F400012
:10344000004261514946002141454B310018141298
:103450007F10002745454539003C4A494930000165
:103460007109050300364949493600064949291EB4
:103470000000363600000000563600000008142216
:103480004100001414141414000041221408000216
:103490000151090600324959513E007C1211127C3B
:1034A000007F49494936003E41414122007F414168
:1034B000221C007F49494941007F09090901003E5A
:1034C0004149497A007F0808087F0000417F410098
:1034D000002040413F01007F08142241007F40400E
:1034E0004040007F020C027F007F0408107F003EF6
:1034F0004141413E007F09090906003E4151215EDC
:10350000007F091929460046494949310001017FD8
:103510000101003F4040403F001F2040201F003F6E
:103520004038403F00631408146300070870080720
:1035300000615149454300007F41410000552A5533
:103540002A55000041417F000004020102040040AE
:1035500040404040000001020400002054545478D0
:10356000007F4844443800384444442000384444F0
:10357000487F00385454541800087E09010200188E
:10358000A4A4A47C007F080404780000447D4000CB
:10359000004080847D00007F102844000000417FAF
:1035A0004000007C04180478007C0804047800388B
:1035B0004444443800FC242424180018242418FC13
:1035C000007C0804040800485454542000043F447C
:1035D0004020003C4040207C001C2040201C003C3F
:1035E0004030403C004428102844001CA0A0A07C8F
:1035F000004464544C4414141414141400000000C7
:10360000000000000000000000000000000000F8C2
:1036100000000000000000333000000000100C0625
:10362000100C0600000000000000000040C07840C0
:10363000C0784000043F04043F040400007088FC8C
:1036400008300000001820FF211E0000F008F000E4
:10365000E018000000211C031E211E0000F0088855
:10366000700000001E2123241927211010160E00BF
:10367000000000000000000000000000000000E06A
:10368000180402000000000718204000000204187F
:10369000E00000000040201807000000404080F0DB
:1036A000804040000202010F01020200000000F011
:1036B000000000000101011F0101010000000000E5
:1036C0000000000080B0700000000000000000005A
:1036D00000000000000101010101010100000000E3
:1036E000000000000030300000000000000000007A
:1036F00080601804006018060100000000E0100857
:103700000810E000000F102020100F00001010F82B
:10371000000000000020203F20200000007008086A
:1037200008887000003028242221300000300888EA
:10373000884830000018202020110E000000C02012
:1037400010F8000000070424243F240000F8088833
:10375000880808000019212020110E0000E01088C0
:1037600088180000000F112020110E0000380808F2
:10377000C83808000000003F000000000070880802
:1037800008887000001C222121221C0000E0100883
:103790000810E0000000312222110F00000000C0DC
:1037A000C000000000000030300000000000008079
:1037B0000000000000008060000000000000804069
:1037C0002010080000010204081020004040404082
:1037D00040404000040404040404040000081020D5
:1037E000408000000020100804020100007048081A
:1037F0000808F0000000003036010000C030C82882
:10380000E810E0000718272423140B000000C0383C
:10381000E0000000203C23020227382008F88888B6
:1038200088700000203F202020110E00C0300808C2
:1038300008083800071820202010080008F8080899
:103840000810E000203F202020100F0008F8888892
:10385000E8081000203F20202320180008F888885E
:10386000E8081000203F200003000000C0300808D6
:103870000838000007182020221E020008F808005F
:103880000008F808203F210101213F20000808F826
:10389000080800000020203F202000000000080849
:1038A000F8080800C08080807F00000008F888C009
:1038B00028180800203F20012638200008F80800BA
:1038C00000000000203F20202020300008F8F800F1
:1038D000F8F80800203F003F003F200008F830C003
:1038E0000008F808203F200007183F00E0100808F3
:1038F0000810E0000F10202020100F0008F8080822
:103900000808F000203F210101010000E010080834
:103910000810E0000F18242438504F0008F8888859
:1039200088887000203F2000030C30200070880839
:10393000080838000038202121221C00180808F847
:10394000080818000000203F2000000008F80800C8
:103950000008F808001F202020201F000878880099
:1039600000C83808000007380E010000F80800F809
:103970000008F800033C0700073C030008186880B3
:103980008068180820302C03032C30200838C80029
:10399000C83808000000203F200000001008080878
:1039A000C83808002038262120201800000000FE1A
:1039B000020202000000007F40404000000C30C0C6
:1039C00000000000000000010638C00000020202F2
:1039D000FE000000004040407F00000000000402A4
:1039E00002020400000000000000000000000000CF
:1039F00000000000808080808080808000020204BF
:103A000000000000000000000000000000008080B6
:103A1000808000000019242222223F2008F8008024
:103A200080000000003F112020110E0000000080E7
:103A300080800000000E1120202011000000008076
:103A40008088F800000E112020103F2000008080A8
:103A500080800000001F222222221300008080F0BC
:103A6000888888180020203F2020000000008080E7
:103A700080808000006B94949493600008F800802C
:103A800080800000203F210000203F200080989887
:103A9000000000000020203F2020000000000080E7
:103AA0009898000000C08080807F000008F8000027
:103AB00080808000203F24022D302000000808F87C
:103AC000000000000020203F202000008080808037
:103AD00080808000203F20003F20003F80800080C9
:103AE00080800000203F210000203F2000008080D7
:103AF00080800000001F202020201F008080008088
:103B00008000000080FFA12020110E000000008036
:103B100080808000000E112020A0FF808080800027
:103B20008080800020203F21200001000000808054
:103B3000808080000033242424241900008080E049
:103B4000808000000000001F202000008080000016
:103B500000808000001F202020103F2080808000F7
:103B60000080808000010E30080601008080008007
:103B7000008080800F300C030C300F00008080002C
:103B8000808080000020312E0E3120008080800057
:103B90000080808080818E70180601000080808007
:103BA000808080000021302C2221300000000000A5
:103BB000807C020200000000003F40400000000046
:103BC000FF00000000000000FF0000000002027C77
:103BD000800000000040403F00000000000601019E
:103BE00002020404000000000000000000000000C9
:103BF000000000000102030406070809000000009D
:103C000001020304243C00080000002058000000CA
:103C1000903000087C3C000858000020000800009C
:103C2000A03000081E0000001E0000000000000080
:103C30000000803FCDCCAC3F000000000000000041
:103C4000000000403D0AC73F0000000000000000E7
:103C50000000000000000000000000000000000064
:103C60000000000000000000000000000100000053
:0C3C700010000000000000000024F40020
:04000005080000ED02
:00000001FF
